:1000000009C021C033C01FC01EC01DC01DC01BC001
:100010001AC019C011241FBECFE9CDBF10E0A0E661
:10002000B0E0EAEFF2E002C005900D92A236B1070F
:10003000D9F720E0A2E6B0E001C01D92A737B207D1
:10004000E1F756D158C1DCCF8F938FB78F939F9331
:100050008091620090916300019690936300809379
:1000600062009F918F918FBF8F9118952F932FB71B
:100070002F933F934F935F938F939F938827B499C8
:100080008395809360009091600080916100981743
:1000900069F1809162009091630090936B0080936E
:1000A0006A00809168009091690020916A00309107
:1000B0006B008217930718F5A901481B590BCA0159
:1000C000909367008093660080916A0090916B0026
:1000D000909369008093680080916000813011F4F2
:1000E0008093640080916000809361009F918F9164
:1000F0005F914F913F912F912FBF2F911895821BA8
:10010000930BDECFB89AB99ABA9AC29882E08FBDA3
:1001100081E083BF89E986BF89B7846089BFBC98C5
:100120008BB780628BBFAC9A7894089580917100F0
:10013000813889F08238D1F0803811F580916D00D6
:1001400081111EC088B392E0892788BB81E080932B
:100150006E00C298089580916E00811589F0C29A50
:1001600081E080936D00C09AC198089580916D00E0
:10017000811531F0C298C09810926E0010926D00F7
:10018000089580916600909167008937910580F00D
:1001900080916600909167008639910548F410922D
:1001A0007400109273001092720081E080936C00D2
:1001B000089580916C008115D1F180916600909135
:1001C0006700C897A8F180916600909167008A3512
:1001D000910570F540917400209172003091730088
:1001E00081E090E002C0880F991F4A95E2F7822BC8
:1001F000932B9093730080937200809174008F5FB3
:1002000080937400809174008C3088F0809172002B
:10021000909173008093710010927300109272009D
:100220001092740010926C0081E080936500089534
:100230008091660090916700C297F8F68091660001
:10024000909167004597C8F2409174002091720028
:100250003091730081E090E002C0880F991F4A95A9
:10026000E2F78095909582239323C3CF809162001B
:100270009091630090936B0080936A008091680076
:100280009091690020916A0030916B00821793076A
:1002900048F4A901481B590BCA0190936700809349
:1002A00066000895821B930BF8CF6817790718F43E
:1002B000861B970B08959B01281B390BC9010895D4
:1002C00080916500811519F031DF109265008091F1
:1002D0006400811551F08091660090916700893724
:1002E000910520F04EDF10926400089562DFFBCF8D
:0A02F00009DFE6DFFECFF894FFCF30
:0202FA00010100
:00000001FF
